{
  "contractName": "BadgeNFT",
  "abi": [
    {
      "inputs": [
        {
          "internalType": "string",
          "name": "badgeURIs",
          "type": "string"
        }
      ],
      "stateMutability": "nonpayable",
      "type": "constructor"
    },
    {
      "inputs": [
        {
          "internalType": "address",
          "name": "sender",
          "type": "address"
        },
        {
          "internalType": "uint256",
          "name": "balance",
          "type": "uint256"
        },
        {
          "internalType": "uint256",
          "name": "needed",
          "type": "uint256"
        },
        {
          "internalType": "uint256",
          "name": "tokenId",
          "type": "uint256"
        }
      ],
      "name": "ERC1155InsufficientBalance",
      "type": "error"
    },
    {
      "inputs": [
        {
          "internalType": "address",
          "name": "approver",
          "type": "address"
        }
      ],
      "name": "ERC1155InvalidApprover",
      "type": "error"
    },
    {
      "inputs": [
        {
          "internalType": "uint256",
          "name": "idsLength",
          "type": "uint256"
        },
        {
          "internalType": "uint256",
          "name": "valuesLength",
          "type": "uint256"
        }
      ],
      "name": "ERC1155InvalidArrayLength",
      "type": "error"
    },
    {
      "inputs": [
        {
          "internalType": "address",
          "name": "operator",
          "type": "address"
        }
      ],
      "name": "ERC1155InvalidOperator",
      "type": "error"
    },
    {
      "inputs": [
        {
          "internalType": "address",
          "name": "receiver",
          "type": "address"
        }
      ],
      "name": "ERC1155InvalidReceiver",
      "type": "error"
    },
    {
      "inputs": [
        {
          "internalType": "address",
          "name": "sender",
          "type": "address"
        }
      ],
      "name": "ERC1155InvalidSender",
      "type": "error"
    },
    {
      "inputs": [
        {
          "internalType": "address",
          "name": "operator",
          "type": "address"
        },
        {
          "internalType": "address",
          "name": "owner",
          "type": "address"
        }
      ],
      "name": "ERC1155MissingApprovalForAll",
      "type": "error"
    },
    {
      "inputs": [
        {
          "internalType": "address",
          "name": "owner",
          "type": "address"
        }
      ],
      "name": "OwnableInvalidOwner",
      "type": "error"
    },
    {
      "inputs": [
        {
          "internalType": "address",
          "name": "account",
          "type": "address"
        }
      ],
      "name": "OwnableUnauthorizedAccount",
      "type": "error"
    },
    {
      "anonymous": false,
      "inputs": [
        {
          "indexed": true,
          "internalType": "address",
          "name": "account",
          "type": "address"
        },
        {
          "indexed": true,
          "internalType": "address",
          "name": "operator",
          "type": "address"
        },
        {
          "indexed": false,
          "internalType": "bool",
          "name": "approved",
          "type": "bool"
        }
      ],
      "name": "ApprovalForAll",
      "type": "event"
    },
    {
      "anonymous": false,
      "inputs": [
        {
          "indexed": true,
          "internalType": "address",
          "name": "previousOwner",
          "type": "address"
        },
        {
          "indexed": true,
          "internalType": "address",
          "name": "newOwner",
          "type": "address"
        }
      ],
      "name": "OwnershipTransferred",
      "type": "event"
    },
    {
      "anonymous": false,
      "inputs": [
        {
          "indexed": true,
          "internalType": "address",
          "name": "operator",
          "type": "address"
        },
        {
          "indexed": true,
          "internalType": "address",
          "name": "from",
          "type": "address"
        },
        {
          "indexed": true,
          "internalType": "address",
          "name": "to",
          "type": "address"
        },
        {
          "indexed": false,
          "internalType": "uint256[]",
          "name": "ids",
          "type": "uint256[]"
        },
        {
          "indexed": false,
          "internalType": "uint256[]",
          "name": "values",
          "type": "uint256[]"
        }
      ],
      "name": "TransferBatch",
      "type": "event"
    },
    {
      "anonymous": false,
      "inputs": [
        {
          "indexed": true,
          "internalType": "address",
          "name": "operator",
          "type": "address"
        },
        {
          "indexed": true,
          "internalType": "address",
          "name": "from",
          "type": "address"
        },
        {
          "indexed": true,
          "internalType": "address",
          "name": "to",
          "type": "address"
        },
        {
          "indexed": false,
          "internalType": "uint256",
          "name": "id",
          "type": "uint256"
        },
        {
          "indexed": false,
          "internalType": "uint256",
          "name": "value",
          "type": "uint256"
        }
      ],
      "name": "TransferSingle",
      "type": "event"
    },
    {
      "anonymous": false,
      "inputs": [
        {
          "indexed": false,
          "internalType": "string",
          "name": "value",
          "type": "string"
        },
        {
          "indexed": true,
          "internalType": "uint256",
          "name": "id",
          "type": "uint256"
        }
      ],
      "name": "URI",
      "type": "event"
    },
    {
      "inputs": [
        {
          "internalType": "address",
          "name": "account",
          "type": "address"
        },
        {
          "internalType": "uint256",
          "name": "id",
          "type": "uint256"
        }
      ],
      "name": "balanceOf",
      "outputs": [
        {
          "internalType": "uint256",
          "name": "",
          "type": "uint256"
        }
      ],
      "stateMutability": "view",
      "type": "function"
    },
    {
      "inputs": [
        {
          "internalType": "address[]",
          "name": "accounts",
          "type": "address[]"
        },
        {
          "internalType": "uint256[]",
          "name": "ids",
          "type": "uint256[]"
        }
      ],
      "name": "balanceOfBatch",
      "outputs": [
        {
          "internalType": "uint256[]",
          "name": "",
          "type": "uint256[]"
        }
      ],
      "stateMutability": "view",
      "type": "function"
    },
    {
      "inputs": [
        {
          "internalType": "address",
          "name": "account",
          "type": "address"
        },
        {
          "internalType": "address",
          "name": "operator",
          "type": "address"
        }
      ],
      "name": "isApprovedForAll",
      "outputs": [
        {
          "internalType": "bool",
          "name": "",
          "type": "bool"
        }
      ],
      "stateMutability": "view",
      "type": "function"
    },
    {
      "inputs": [],
      "name": "owner",
      "outputs": [
        {
          "internalType": "address",
          "name": "",
          "type": "address"
        }
      ],
      "stateMutability": "view",
      "type": "function"
    },
    {
      "inputs": [],
      "name": "renounceOwnership",
      "outputs": [],
      "stateMutability": "nonpayable",
      "type": "function"
    },
    {
      "inputs": [
        {
          "internalType": "address",
          "name": "from",
          "type": "address"
        },
        {
          "internalType": "address",
          "name": "to",
          "type": "address"
        },
        {
          "internalType": "uint256[]",
          "name": "ids",
          "type": "uint256[]"
        },
        {
          "internalType": "uint256[]",
          "name": "values",
          "type": "uint256[]"
        },
        {
          "internalType": "bytes",
          "name": "data",
          "type": "bytes"
        }
      ],
      "name": "safeBatchTransferFrom",
      "outputs": [],
      "stateMutability": "nonpayable",
      "type": "function"
    },
    {
      "inputs": [
        {
          "internalType": "address",
          "name": "from",
          "type": "address"
        },
        {
          "internalType": "address",
          "name": "to",
          "type": "address"
        },
        {
          "internalType": "uint256",
          "name": "id",
          "type": "uint256"
        },
        {
          "internalType": "uint256",
          "name": "value",
          "type": "uint256"
        },
        {
          "internalType": "bytes",
          "name": "data",
          "type": "bytes"
        }
      ],
      "name": "safeTransferFrom",
      "outputs": [],
      "stateMutability": "nonpayable",
      "type": "function"
    },
    {
      "inputs": [
        {
          "internalType": "address",
          "name": "operator",
          "type": "address"
        },
        {
          "internalType": "bool",
          "name": "approved",
          "type": "bool"
        }
      ],
      "name": "setApprovalForAll",
      "outputs": [],
      "stateMutability": "nonpayable",
      "type": "function"
    },
    {
      "inputs": [
        {
          "internalType": "bytes4",
          "name": "interfaceId",
          "type": "bytes4"
        }
      ],
      "name": "supportsInterface",
      "outputs": [
        {
          "internalType": "bool",
          "name": "",
          "type": "bool"
        }
      ],
      "stateMutability": "view",
      "type": "function"
    },
    {
      "inputs": [
        {
          "internalType": "address",
          "name": "newOwner",
          "type": "address"
        }
      ],
      "name": "transferOwnership",
      "outputs": [],
      "stateMutability": "nonpayable",
      "type": "function"
    },
    {
      "inputs": [
        {
          "internalType": "address",
          "name": "to",
          "type": "address"
        },
        {
          "internalType": "uint256",
          "name": "id",
          "type": "uint256"
        },
        {
          "internalType": "uint256",
          "name": "amount",
          "type": "uint256"
        }
      ],
      "name": "mint",
      "outputs": [],
      "stateMutability": "nonpayable",
      "type": "function"
    },
    {
      "inputs": [
        {
          "internalType": "uint256",
          "name": "",
          "type": "uint256"
        }
      ],
      "name": "uri",
      "outputs": [
        {
          "internalType": "string",
          "name": "",
          "type": "string"
        }
      ],
      "stateMutability": "view",
      "type": "function"
    },
    {
      "inputs": [],
      "name": "uri",
      "outputs": [
        {
          "internalType": "string",
          "name": "",
          "type": "string"
        }
      ],
      "stateMutability": "view",
      "type": "function"
    },
    {
      "inputs": [
        {
          "internalType": "string",
          "name": "newURI",
          "type": "string"
        }
      ],
      "name": "setURI",
      "outputs": [],
      "stateMutability": "nonpayable",
      "type": "function"
    },
    {
      "inputs": [
        {
          "internalType": "address",
          "name": "newOwner",
          "type": "address"
        }
      ],
      "name": "trsnsferApprove",
      "outputs": [],
      "stateMutability": "nonpayable",
      "type": "function"
    }
  ],
  "bytecode": "0x608060405234801562000010575f80fd5b5060405162002d9538038062002d95833981810160405281019062000036919062000333565b33816200004981620000d660201b60201c565b505f73ffffffffffffffffffffffffffffffffffffffff168173ffffffffffffffffffffffffffffffffffffffff1603620000bd575f6040517f1e4fbdf7000000000000000000000000000000000000000000000000000000008152600401620000b49190620003c5565b60405180910390fd5b620000ce81620000eb60201b60201c565b5050620006fb565b8060029081620000e7919062000617565b5050565b5f60035f9054906101000a900473ffffffffffffffffffffffffffffffffffffffff1690508160035f6101000a81548173ffffffffffffffffffffffffffffffffffffffff021916908373ffffffffffffffffffffffffffffffffffffffff1602179055508173ffffffffffffffffffffffffffffffffffffffff168173ffffffffffffffffffffffffffffffffffffffff167f8be0079c531659141344cd1fd0a4f28419497f9722a3daafe3b4186f6b6457e060405160405180910390a35050565b5f604051905090565b5f80fd5b5f80fd5b5f80fd5b5f80fd5b5f601f19601f8301169050919050565b7f4e487b71000000000000000000000000000000000000000000000000000000005f52604160045260245ffd5b6200020f82620001c7565b810181811067ffffffffffffffff82111715620002315762000230620001d7565b5b80604052505050565b5f62000245620001ae565b905062000253828262000204565b919050565b5f67ffffffffffffffff821115620002755762000274620001d7565b5b6200028082620001c7565b9050602081019050919050565b5f5b83811015620002ac5780820151818401526020810190506200028f565b5f8484015250505050565b5f620002cd620002c78462000258565b6200023a565b905082815260208101848484011115620002ec57620002eb620001c3565b5b620002f98482856200028d565b509392505050565b5f82601f830112620003185762000317620001bf565b5b81516200032a848260208601620002b7565b91505092915050565b5f602082840312156200034b576200034a620001b7565b5b5f82015167ffffffffffffffff8111156200036b576200036a620001bb565b5b620003798482850162000301565b91505092915050565b5f73ffffffffffffffffffffffffffffffffffffffff82169050919050565b5f620003ad8262000382565b9050919050565b620003bf81620003a1565b82525050565b5f602082019050620003da5f830184620003b4565b92915050565b5f81519050919050565b7f4e487b71000000000000000000000000000000000000000000000000000000005f52602260045260245ffd5b5f60028204905060018216806200042f57607f821691505b602082108103620004455762000444620003ea565b5b50919050565b5f819050815f5260205f209050919050565b5f6020601f8301049050919050565b5f82821b905092915050565b5f60088302620004a97fffffffffffffffffffffffffffffffffffffffffffffffffffffffffffffffff826200046c565b620004b586836200046c565b95508019841693508086168417925050509392505050565b5f819050919050565b5f819050919050565b5f620004ff620004f9620004f384620004cd565b620004d6565b620004cd565b9050919050565b5f819050919050565b6200051a83620004df565b62000532620005298262000506565b84845462000478565b825550505050565b5f90565b620005486200053a565b620005558184846200050f565b505050565b5b818110156200057c57620005705f826200053e565b6001810190506200055b565b5050565b601f821115620005cb5762000595816200044b565b620005a0846200045d565b81016020851015620005b0578190505b620005c8620005bf856200045d565b8301826200055a565b50505b505050565b5f82821c905092915050565b5f620005ed5f1984600802620005d0565b1980831691505092915050565b5f620006078383620005dc565b9150826002028217905092915050565b6200062282620003e0565b67ffffffffffffffff8111156200063e576200063d620001d7565b5b6200064a825462000417565b6200065782828562000580565b5f60209050601f8311600181146200068d575f841562000678578287015190505b620006848582620005fa565b865550620006f3565b601f1984166200069d866200044b565b5f5b82811015620006c6578489015182556001820191506020850194506020810190506200069f565b86831015620006e65784890151620006e2601f891682620005dc565b8355505b6001600288020188555050505b505050505050565b61268c80620007095f395ff3fe608060405234801561000f575f80fd5b50600436106100f2575f3560e01c80634e1273f411610095578063e985e9c511610064578063e985e9c51461026a578063eac989f81461029a578063f242432a146102b8578063f2fde38b146102d4576100f2565b80634e1273f4146101f6578063715018a6146102265780638da5cb5b14610230578063a22cb4651461024e576100f2565b80630e89341c116100d15780630e89341c14610172578063156e29f6146101a25780632cfc9d40146101be5780632eb2c2d6146101da576100f2565b8062fdd58e146100f657806301ffc9a71461012657806302fe530514610156575b5f80fd5b610110600480360381019061010b919061172d565b6102f0565b60405161011d919061177a565b60405180910390f35b610140600480360381019061013b91906117e8565b610345565b60405161014d919061182d565b60405180910390f35b610170600480360381019061016b9190611982565b610426565b005b61018c600480360381019061018791906119c9565b61043a565b6040516101999190611a6e565b60405180910390f35b6101bc60048036038101906101b79190611a8e565b6104cc565b005b6101d860048036038101906101d39190611ade565b6104f3565b005b6101f460048036038101906101ef9190611c6b565b610507565b005b610210600480360381019061020b9190611df6565b6105ae565b60405161021d9190611f23565b60405180910390f35b61022e6106bb565b005b6102386106ce565b6040516102459190611f52565b60405180910390f35b61026860048036038101906102639190611f95565b6106f6565b005b610284600480360381019061027f9190611fd3565b61070c565b604051610291919061182d565b60405180910390f35b6102a261079a565b6040516102af9190611a6e565b60405180910390f35b6102d260048036038101906102cd9190612011565b6107a9565b005b6102ee60048036038101906102e99190611ade565b610850565b005b5f805f8381526020019081526020015f205f8473ffffffffffffffffffffffffffffffffffffffff1673ffffffffffffffffffffffffffffffffffffffff1681526020019081526020015f2054905092915050565b5f7fd9b67a26000000000000000000000000000000000000000000000000000000007bffffffffffffffffffffffffffffffffffffffffffffffffffffffff1916827bffffffffffffffffffffffffffffffffffffffffffffffffffffffff1916148061040f57507f0e89341c000000000000000000000000000000000000000000000000000000007bffffffffffffffffffffffffffffffffffffffffffffffffffffffff1916827bffffffffffffffffffffffffffffffffffffffffffffffffffffffff1916145b8061041f575061041e826108d4565b5b9050919050565b61042e61093d565b610437816109c4565b50565b606060028054610449906120d1565b80601f0160208091040260200160405190810160405280929190818152602001828054610475906120d1565b80156104c05780601f10610497576101008083540402835291602001916104c0565b820191905f5260205f20905b8154815290600101906020018083116104a357829003601f168201915b50505050509050919050565b6104d461093d565b6104ee83838360405180602001604052805f8152506109d7565b505050565b6104fb61093d565b61050481610850565b50565b5f610510610a6c565b90508073ffffffffffffffffffffffffffffffffffffffff168673ffffffffffffffffffffffffffffffffffffffff16141580156105555750610553868261070c565b155b156105995780866040517fe237d922000000000000000000000000000000000000000000000000000000008152600401610590929190612101565b60405180910390fd5b6105a68686868686610a73565b505050505050565b606081518351146105fa57815183516040517f5b0599910000000000000000000000000000000000000000000000000000000081526004016105f1929190612128565b60405180910390fd5b5f835167ffffffffffffffff8111156106165761061561185e565b5b6040519080825280602002602001820160405280156106445781602001602082028036833780820191505090505b5090505f5b84518110156106b0576106806106688287610b6790919063ffffffff16565b61067b8387610b7a90919063ffffffff16565b6102f0565b8282815181106106935761069261214f565b5b602002602001018181525050806106a9906121a9565b9050610649565b508091505092915050565b6106c361093d565b6106cc5f610b8d565b565b5f60035f9054906101000a900473ffffffffffffffffffffffffffffffffffffffff16905090565b610708610701610a6c565b8383610c50565b5050565b5f60015f8473ffffffffffffffffffffffffffffffffffffffff1673ffffffffffffffffffffffffffffffffffffffff1681526020019081526020015f205f8373ffffffffffffffffffffffffffffffffffffffff1673ffffffffffffffffffffffffffffffffffffffff1681526020019081526020015f205f9054906101000a900460ff16905092915050565b60606107a461079a565b905090565b5f6107b2610a6c565b90508073ffffffffffffffffffffffffffffffffffffffff168673ffffffffffffffffffffffffffffffffffffffff16141580156107f757506107f5868261070c565b155b1561083b5780866040517fe237d922000000000000000000000000000000000000000000000000000000008152600401610832929190612101565b60405180910390fd5b6108488686868686610db9565b505050505050565b61085861093d565b5f73ffffffffffffffffffffffffffffffffffffffff168173ffffffffffffffffffffffffffffffffffffffff16036108c8575f6040517f1e4fbdf70000000000000000000000000000000000000000000000000000000081526004016108bf9190611f52565b60405180910390fd5b6108d181610b8d565b50565b5f7f01ffc9a7000000000000000000000000000000000000000000000000000000007bffffffffffffffffffffffffffffffffffffffffffffffffffffffff1916827bffffffffffffffffffffffffffffffffffffffffffffffffffffffff1916149050919050565b610945610a6c565b73ffffffffffffffffffffffffffffffffffffffff166109636106ce565b73ffffffffffffffffffffffffffffffffffffffff16146109c257610986610a6c565b6040517f118cdaa70000000000000000000000000000000000000000000000000000000081526004016109b99190611f52565b60405180910390fd5b565b80600290816109d3919061238d565b5050565b5f73ffffffffffffffffffffffffffffffffffffffff168473ffffffffffffffffffffffffffffffffffffffff1603610a47575f6040517f57f447ce000000000000000000000000000000000000000000000000000000008152600401610a3e9190611f52565b60405180910390fd5b5f80610a538585610ebf565b91509150610a645f87848487610eef565b505050505050565b5f33905090565b5f73ffffffffffffffffffffffffffffffffffffffff168473ffffffffffffffffffffffffffffffffffffffff1603610ae3575f6040517f57f447ce000000000000000000000000000000000000000000000000000000008152600401610ada9190611f52565b60405180910390fd5b5f73ffffffffffffffffffffffffffffffffffffffff168573ffffffffffffffffffffffffffffffffffffffff1603610b53575f6040517f01a83514000000000000000000000000000000000000000000000000000000008152600401610b4a9190611f52565b60405180910390fd5b610b608585858585610eef565b5050505050565b5f60208202602084010151905092915050565b5f60208202602084010151905092915050565b5f60035f9054906101000a900473ffffffffffffffffffffffffffffffffffffffff1690508160035f6101000a81548173ffffffffffffffffffffffffffffffffffffffff021916908373ffffffffffffffffffffffffffffffffffffffff1602179055508173ffffffffffffffffffffffffffffffffffffffff168173ffffffffffffffffffffffffffffffffffffffff167f8be0079c531659141344cd1fd0a4f28419497f9722a3daafe3b4186f6b6457e060405160405180910390a35050565b5f73ffffffffffffffffffffffffffffffffffffffff168273ffffffffffffffffffffffffffffffffffffffff1603610cc0575f6040517fced3e100000000000000000000000000000000000000000000000000000000008152600401610cb79190611f52565b60405180910390fd5b8060015f8573ffffffffffffffffffffffffffffffffffffffff1673ffffffffffffffffffffffffffffffffffffffff1681526020019081526020015f205f8473ffffffffffffffffffffffffffffffffffffffff1673ffffffffffffffffffffffffffffffffffffffff1681526020019081526020015f205f6101000a81548160ff0219169083151502179055508173ffffffffffffffffffffffffffffffffffffffff168373ffffffffffffffffffffffffffffffffffffffff167f17307eab39ab6107e8899845ad3d59bd9653f200f220920489ca2b5937696c3183604051610dac919061182d565b60405180910390a3505050565b5f73ffffffffffffffffffffffffffffffffffffffff168473ffffffffffffffffffffffffffffffffffffffff1603610e29575f6040517f57f447ce000000000000000000000000000000000000000000000000000000008152600401610e209190611f52565b60405180910390fd5b5f73ffffffffffffffffffffffffffffffffffffffff168573ffffffffffffffffffffffffffffffffffffffff1603610e99575f6040517f01a83514000000000000000000000000000000000000000000000000000000008152600401610e909190611f52565b60405180910390fd5b5f80610ea58585610ebf565b91509150610eb68787848487610eef565b50505050505050565b60608060405191506001825283602083015260408201905060018152826020820152604081016040529250929050565b610efb85858585610f9b565b5f73ffffffffffffffffffffffffffffffffffffffff168473ffffffffffffffffffffffffffffffffffffffff1614610f94575f610f37610a6c565b90506001845103610f83575f610f565f86610b7a90919063ffffffff16565b90505f610f6c5f86610b7a90919063ffffffff16565b9050610f7c838989858589611331565b5050610f92565b610f918187878787876114e0565b5b505b5050505050565b8051825114610fe557815181516040517f5b059991000000000000000000000000000000000000000000000000000000008152600401610fdc929190612128565b60405180910390fd5b5f610fee610a6c565b90505f5b83518110156111f0575f61100f8286610b7a90919063ffffffff16565b90505f6110258386610b7a90919063ffffffff16565b90505f73ffffffffffffffffffffffffffffffffffffffff168873ffffffffffffffffffffffffffffffffffffffff1614611148575f805f8481526020019081526020015f205f8a73ffffffffffffffffffffffffffffffffffffffff1673ffffffffffffffffffffffffffffffffffffffff1681526020019081526020015f20549050818110156110f457888183856040517f03dee4c50000000000000000000000000000000000000000000000000000000081526004016110eb949392919061245c565b60405180910390fd5b8181035f808581526020019081526020015f205f8b73ffffffffffffffffffffffffffffffffffffffff1673ffffffffffffffffffffffffffffffffffffffff1681526020019081526020015f2081905550505b5f73ffffffffffffffffffffffffffffffffffffffff168773ffffffffffffffffffffffffffffffffffffffff16146111dd57805f808481526020019081526020015f205f8973ffffffffffffffffffffffffffffffffffffffff1673ffffffffffffffffffffffffffffffffffffffff1681526020019081526020015f205f8282546111d5919061249f565b925050819055505b5050806111e9906121a9565b9050610ff2565b5060018351036112ab575f61120e5f85610b7a90919063ffffffff16565b90505f6112245f85610b7a90919063ffffffff16565b90508573ffffffffffffffffffffffffffffffffffffffff168773ffffffffffffffffffffffffffffffffffffffff168473ffffffffffffffffffffffffffffffffffffffff167fc3d58168c5ae7397731d063d5bbf3d657854427343f4c083240f7aacaa2d0f62858560405161129c929190612128565b60405180910390a4505061132a565b8373ffffffffffffffffffffffffffffffffffffffff168573ffffffffffffffffffffffffffffffffffffffff168273ffffffffffffffffffffffffffffffffffffffff167f4a39dc06d4c0dbc64b70af90fd698a233a518aa5d07e595d983b8c0526c8f7fb86866040516113219291906124d2565b60405180910390a45b5050505050565b5f8473ffffffffffffffffffffffffffffffffffffffff163b11156114d8578373ffffffffffffffffffffffffffffffffffffffff1663f23a6e6187878686866040518663ffffffff1660e01b8152600401611391959493929190612559565b6020604051808303815f875af19250505080156113cc57506040513d601f19601f820116820180604052508101906113c991906125c5565b60015b61144d573d805f81146113fa576040519150601f19603f3d011682016040523d82523d5f602084013e6113ff565b606091505b505f81510361144557846040517f57f447ce00000000000000000000000000000000000000000000000000000000815260040161143c9190611f52565b60405180910390fd5b805181602001fd5b63f23a6e6160e01b7bffffffffffffffffffffffffffffffffffffffffffffffffffffffff1916817bffffffffffffffffffffffffffffffffffffffffffffffffffffffff1916146114d657846040517f57f447ce0000000000000000000000000000000000000000000000000000000081526004016114cd9190611f52565b60405180910390fd5b505b505050505050565b5f8473ffffffffffffffffffffffffffffffffffffffff163b1115611687578373ffffffffffffffffffffffffffffffffffffffff1663bc197c8187878686866040518663ffffffff1660e01b81526004016115409594939291906125f0565b6020604051808303815f875af192505050801561157b57506040513d601f19601f8201168201806040525081019061157891906125c5565b60015b6115fc573d805f81146115a9576040519150601f19603f3d011682016040523d82523d5f602084013e6115ae565b606091505b505f8151036115f457846040517f57f447ce0000000000000000000000000000000000000000000000000000000081526004016115eb9190611f52565b60405180910390fd5b805181602001fd5b63bc197c8160e01b7bffffffffffffffffffffffffffffffffffffffffffffffffffffffff1916817bffffffffffffffffffffffffffffffffffffffffffffffffffffffff19161461168557846040517f57f447ce00000000000000000000000000000000000000000000000000000000815260040161167c9190611f52565b60405180910390fd5b505b505050505050565b5f604051905090565b5f80fd5b5f80fd5b5f73ffffffffffffffffffffffffffffffffffffffff82169050919050565b5f6116c9826116a0565b9050919050565b6116d9816116bf565b81146116e3575f80fd5b50565b5f813590506116f4816116d0565b92915050565b5f819050919050565b61170c816116fa565b8114611716575f80fd5b50565b5f8135905061172781611703565b92915050565b5f806040838503121561174357611742611698565b5b5f611750858286016116e6565b925050602061176185828601611719565b9150509250929050565b611774816116fa565b82525050565b5f60208201905061178d5f83018461176b565b92915050565b5f7fffffffff0000000000000000000000000000000000000000000000000000000082169050919050565b6117c781611793565b81146117d1575f80fd5b50565b5f813590506117e2816117be565b92915050565b5f602082840312156117fd576117fc611698565b5b5f61180a848285016117d4565b91505092915050565b5f8115159050919050565b61182781611813565b82525050565b5f6020820190506118405f83018461181e565b92915050565b5f80fd5b5f80fd5b5f601f19601f8301169050919050565b7f4e487b71000000000000000000000000000000000000000000000000000000005f52604160045260245ffd5b6118948261184e565b810181811067ffffffffffffffff821117156118b3576118b261185e565b5b80604052505050565b5f6118c561168f565b90506118d1828261188b565b919050565b5f67ffffffffffffffff8211156118f0576118ef61185e565b5b6118f98261184e565b9050602081019050919050565b828183375f83830152505050565b5f611926611921846118d6565b6118bc565b9050828152602081018484840111156119425761194161184a565b5b61194d848285611906565b509392505050565b5f82601f83011261196957611968611846565b5b8135611979848260208601611914565b91505092915050565b5f6020828403121561199757611996611698565b5b5f82013567ffffffffffffffff8111156119b4576119b361169c565b5b6119c084828501611955565b91505092915050565b5f602082840312156119de576119dd611698565b5b5f6119eb84828501611719565b91505092915050565b5f81519050919050565b5f82825260208201905092915050565b5f5b83811015611a2b578082015181840152602081019050611a10565b5f8484015250505050565b5f611a40826119f4565b611a4a81856119fe565b9350611a5a818560208601611a0e565b611a638161184e565b840191505092915050565b5f6020820190508181035f830152611a868184611a36565b905092915050565b5f805f60608486031215611aa557611aa4611698565b5b5f611ab2868287016116e6565b9350506020611ac386828701611719565b9250506040611ad486828701611719565b9150509250925092565b5f60208284031215611af357611af2611698565b5b5f611b00848285016116e6565b91505092915050565b5f67ffffffffffffffff821115611b2357611b2261185e565b5b602082029050602081019050919050565b5f80fd5b5f611b4a611b4584611b09565b6118bc565b90508083825260208201905060208402830185811115611b6d57611b6c611b34565b5b835b81811015611b965780611b828882611719565b845260208401935050602081019050611b6f565b5050509392505050565b5f82601f830112611bb457611bb3611846565b5b8135611bc4848260208601611b38565b91505092915050565b5f67ffffffffffffffff821115611be757611be661185e565b5b611bf08261184e565b9050602081019050919050565b5f611c0f611c0a84611bcd565b6118bc565b905082815260208101848484011115611c2b57611c2a61184a565b5b611c36848285611906565b509392505050565b5f82601f830112611c5257611c51611846565b5b8135611c62848260208601611bfd565b91505092915050565b5f805f805f60a08688031215611c8457611c83611698565b5b5f611c91888289016116e6565b9550506020611ca2888289016116e6565b945050604086013567ffffffffffffffff811115611cc357611cc261169c565b5b611ccf88828901611ba0565b935050606086013567ffffffffffffffff811115611cf057611cef61169c565b5b611cfc88828901611ba0565b925050608086013567ffffffffffffffff811115611d1d57611d1c61169c565b5b611d2988828901611c3e565b9150509295509295909350565b5f67ffffffffffffffff821115611d5057611d4f61185e565b5b602082029050602081019050919050565b5f611d73611d6e84611d36565b6118bc565b90508083825260208201905060208402830185811115611d9657611d95611b34565b5b835b81811015611dbf5780611dab88826116e6565b845260208401935050602081019050611d98565b5050509392505050565b5f82601f830112611ddd57611ddc611846565b5b8135611ded848260208601611d61565b91505092915050565b5f8060408385031215611e0c57611e0b611698565b5b5f83013567ffffffffffffffff811115611e2957611e2861169c565b5b611e3585828601611dc9565b925050602083013567ffffffffffffffff811115611e5657611e5561169c565b5b611e6285828601611ba0565b9150509250929050565b5f81519050919050565b5f82825260208201905092915050565b5f819050602082019050919050565b611e9e816116fa565b82525050565b5f611eaf8383611e95565b60208301905092915050565b5f602082019050919050565b5f611ed182611e6c565b611edb8185611e76565b9350611ee683611e86565b805f5b83811015611f16578151611efd8882611ea4565b9750611f0883611ebb565b925050600181019050611ee9565b5085935050505092915050565b5f6020820190508181035f830152611f3b8184611ec7565b905092915050565b611f4c816116bf565b82525050565b5f602082019050611f655f830184611f43565b92915050565b611f7481611813565b8114611f7e575f80fd5b50565b5f81359050611f8f81611f6b565b92915050565b5f8060408385031215611fab57611faa611698565b5b5f611fb8858286016116e6565b9250506020611fc985828601611f81565b9150509250929050565b5f8060408385031215611fe957611fe8611698565b5b5f611ff6858286016116e6565b9250506020612007858286016116e6565b9150509250929050565b5f805f805f60a0868803121561202a57612029611698565b5b5f612037888289016116e6565b9550506020612048888289016116e6565b945050604061205988828901611719565b935050606061206a88828901611719565b925050608086013567ffffffffffffffff81111561208b5761208a61169c565b5b61209788828901611c3e565b9150509295509295909350565b7f4e487b71000000000000000000000000000000000000000000000000000000005f52602260045260245ffd5b5f60028204905060018216806120e857607f821691505b6020821081036120fb576120fa6120a4565b5b50919050565b5f6040820190506121145f830185611f43565b6121216020830184611f43565b9392505050565b5f60408201905061213b5f83018561176b565b612148602083018461176b565b9392505050565b7f4e487b71000000000000000000000000000000000000000000000000000000005f52603260045260245ffd5b7f4e487b71000000000000000000000000000000000000000000000000000000005f52601160045260245ffd5b5f6121b3826116fa565b91507fffffffffffffffffffffffffffffffffffffffffffffffffffffffffffffffff82036121e5576121e461217c565b5b600182019050919050565b5f819050815f5260205f209050919050565b5f6020601f8301049050919050565b5f82821b905092915050565b5f6008830261224c7fffffffffffffffffffffffffffffffffffffffffffffffffffffffffffffffff82612211565b6122568683612211565b95508019841693508086168417925050509392505050565b5f819050919050565b5f61229161228c612287846116fa565b61226e565b6116fa565b9050919050565b5f819050919050565b6122aa83612277565b6122be6122b682612298565b84845461221d565b825550505050565b5f90565b6122d26122c6565b6122dd8184846122a1565b505050565b5b81811015612300576122f55f826122ca565b6001810190506122e3565b5050565b601f82111561234557612316816121f0565b61231f84612202565b8101602085101561232e578190505b61234261233a85612202565b8301826122e2565b50505b505050565b5f82821c905092915050565b5f6123655f198460080261234a565b1980831691505092915050565b5f61237d8383612356565b9150826002028217905092915050565b612396826119f4565b67ffffffffffffffff8111156123af576123ae61185e565b5b6123b982546120d1565b6123c4828285612304565b5f60209050601f8311600181146123f5575f84156123e3578287015190505b6123ed8582612372565b865550612454565b601f198416612403866121f0565b5f5b8281101561242a57848901518255600182019150602085019450602081019050612405565b868310156124475784890151612443601f891682612356565b8355505b6001600288020188555050505b505050505050565b5f60808201905061246f5f830187611f43565b61247c602083018661176b565b612489604083018561176b565b612496606083018461176b565b95945050505050565b5f6124a9826116fa565b91506124b4836116fa565b92508282019050808211156124cc576124cb61217c565b5b92915050565b5f6040820190508181035f8301526124ea8185611ec7565b905081810360208301526124fe8184611ec7565b90509392505050565b5f81519050919050565b5f82825260208201905092915050565b5f61252b82612507565b6125358185612511565b9350612545818560208601611a0e565b61254e8161184e565b840191505092915050565b5f60a08201905061256c5f830188611f43565b6125796020830187611f43565b612586604083018661176b565b612593606083018561176b565b81810360808301526125a58184612521565b90509695505050505050565b5f815190506125bf816117be565b92915050565b5f602082840312156125da576125d9611698565b5b5f6125e7848285016125b1565b91505092915050565b5f60a0820190506126035f830188611f43565b6126106020830187611f43565b81810360408301526126228186611ec7565b905081810360608301526126368185611ec7565b9050818103608083015261264a8184612521565b9050969550505050505056fea26469706673582212208cb93fcc25aa96cfb2d0abef10709b3870fa81de9953f68b281a4c0420b4476b64736f6c63430008140033",
  "immutableReferences": {},
  "source": "// SPDX-License-Identifier: MIT\npragma solidity ^0.8.20;\n\nimport \"@openzeppelin/contracts/token/ERC1155/ERC1155.sol\";\nimport \"@openzeppelin/contracts/access/Ownable.sol\";\nimport \"@openzeppelin/contracts/utils/Strings.sol\";\n\ncontract BadgeNFT is ERC1155, Ownable {\n    constructor(\n        string memory badgeURIs\n    ) ERC1155(badgeURIs) Ownable(msg.sender) {}\n\n    function mint(address to, uint256 id, uint256 amount) external onlyOwner {\n        _mint(to, id, amount, \"\");\n    }\n\n    //  ID  URI \n    function uri() public view returns (string memory) {\n        return uri();\n    }\n\n    // URI    \n    function setURI(string memory newURI) external onlyOwner {\n        _setURI(newURI);\n    }\n\n    function trsnsferApprove(address newOwner) external onlyOwner {\n        transferOwnership(newOwner);\n    }\n}\n",
  "sourcePath": "/Users/eunsbook/Documents/bolckchain/blockchain-toy-project/truffle/contracts/IbadgeNFT.sol",
  "compiler": {
    "name": "solc",
    "version": "0.8.20+commit.a1b79de6.Emscripten.clang"
  },
  "schemaVersion": "3.4.16",
  "updatedAt": "2025-05-28T12:23:21.249Z",
  "devdoc": {
    "errors": {
      "ERC1155InsufficientBalance(address,uint256,uint256,uint256)": [
        {
          "details": "Indicates an error related to the current `balance` of a `sender`. Used in transfers.",
          "params": {
            "balance": "Current balance for the interacting account.",
            "needed": "Minimum amount required to perform a transfer.",
            "sender": "Address whose tokens are being transferred.",
            "tokenId": "Identifier number of a token."
          }
        }
      ],
      "ERC1155InvalidApprover(address)": [
        {
          "details": "Indicates a failure with the `approver` of a token to be approved. Used in approvals.",
          "params": {
            "approver": "Address initiating an approval operation."
          }
        }
      ],
      "ERC1155InvalidArrayLength(uint256,uint256)": [
        {
          "details": "Indicates an array length mismatch between ids and values in a safeBatchTransferFrom operation. Used in batch transfers.",
          "params": {
            "idsLength": "Length of the array of token identifiers",
            "valuesLength": "Length of the array of token amounts"
          }
        }
      ],
      "ERC1155InvalidOperator(address)": [
        {
          "details": "Indicates a failure with the `operator` to be approved. Used in approvals.",
          "params": {
            "operator": "Address that may be allowed to operate on tokens without being their owner."
          }
        }
      ],
      "ERC1155InvalidReceiver(address)": [
        {
          "details": "Indicates a failure with the token `receiver`. Used in transfers.",
          "params": {
            "receiver": "Address to which tokens are being transferred."
          }
        }
      ],
      "ERC1155InvalidSender(address)": [
        {
          "details": "Indicates a failure with the token `sender`. Used in transfers.",
          "params": {
            "sender": "Address whose tokens are being transferred."
          }
        }
      ],
      "ERC1155MissingApprovalForAll(address,address)": [
        {
          "details": "Indicates a failure with the `operator`s approval. Used in transfers.",
          "params": {
            "operator": "Address that may be allowed to operate on tokens without being their owner.",
            "owner": "Address of the current owner of a token."
          }
        }
      ],
      "OwnableInvalidOwner(address)": [
        {
          "details": "The owner is not a valid owner account. (eg. `address(0)`)"
        }
      ],
      "OwnableUnauthorizedAccount(address)": [
        {
          "details": "The caller account is not authorized to perform an operation."
        }
      ]
    },
    "events": {
      "ApprovalForAll(address,address,bool)": {
        "details": "Emitted when `account` grants or revokes permission to `operator` to transfer their tokens, according to `approved`."
      },
      "TransferBatch(address,address,address,uint256[],uint256[])": {
        "details": "Equivalent to multiple {TransferSingle} events, where `operator`, `from` and `to` are the same for all transfers."
      },
      "TransferSingle(address,address,address,uint256,uint256)": {
        "details": "Emitted when `value` amount of tokens of type `id` are transferred from `from` to `to` by `operator`."
      },
      "URI(string,uint256)": {
        "details": "Emitted when the URI for token type `id` changes to `value`, if it is a non-programmatic URI. If an {URI} event was emitted for `id`, the standard https://eips.ethereum.org/EIPS/eip-1155#metadata-extensions[guarantees] that `value` will equal the value returned by {IERC1155MetadataURI-uri}."
      }
    },
    "kind": "dev",
    "methods": {
      "balanceOf(address,uint256)": {
        "details": "See {IERC1155-balanceOf}."
      },
      "balanceOfBatch(address[],uint256[])": {
        "details": "See {IERC1155-balanceOfBatch}. Requirements: - `accounts` and `ids` must have the same length."
      },
      "isApprovedForAll(address,address)": {
        "details": "See {IERC1155-isApprovedForAll}."
      },
      "owner()": {
        "details": "Returns the address of the current owner."
      },
      "renounceOwnership()": {
        "details": "Leaves the contract without owner. It will not be possible to call `onlyOwner` functions. Can only be called by the current owner. NOTE: Renouncing ownership will leave the contract without an owner, thereby disabling any functionality that is only available to the owner."
      },
      "safeBatchTransferFrom(address,address,uint256[],uint256[],bytes)": {
        "details": "See {IERC1155-safeBatchTransferFrom}."
      },
      "safeTransferFrom(address,address,uint256,uint256,bytes)": {
        "details": "See {IERC1155-safeTransferFrom}."
      },
      "setApprovalForAll(address,bool)": {
        "details": "See {IERC1155-setApprovalForAll}."
      },
      "supportsInterface(bytes4)": {
        "details": "See {IERC165-supportsInterface}."
      },
      "transferOwnership(address)": {
        "details": "Transfers ownership of the contract to a new account (`newOwner`). Can only be called by the current owner."
      },
      "uri(uint256)": {
        "details": "See {IERC1155MetadataURI-uri}. This implementation returns the same URI for *all* token types. It relies on the token type ID substitution mechanism https://eips.ethereum.org/EIPS/eip-1155#metadata[defined in the ERC]. Clients calling this function must replace the `\\{id\\}` substring with the actual token type ID."
      }
    },
    "version": 1
  },
  "userdoc": {
    "kind": "user",
    "methods": {},
    "version": 1
  }
}