{
  "contractName": "UserCRUD",
  "abi": [
    {
      "inputs": [
        {
          "internalType": "address",
          "name": "_stkToken",
          "type": "address"
        },
        {
          "internalType": "address",
          "name": "_badgeNFT",
          "type": "address"
        }
      ],
      "stateMutability": "nonpayable",
      "type": "constructor"
    },
    {
      "inputs": [
        {
          "internalType": "address",
          "name": "owner",
          "type": "address"
        }
      ],
      "name": "OwnableInvalidOwner",
      "type": "error"
    },
    {
      "inputs": [
        {
          "internalType": "address",
          "name": "account",
          "type": "address"
        }
      ],
      "name": "OwnableUnauthorizedAccount",
      "type": "error"
    },
    {
      "anonymous": false,
      "inputs": [
        {
          "indexed": true,
          "internalType": "address",
          "name": "_address",
          "type": "address"
        },
        {
          "indexed": false,
          "internalType": "uint256",
          "name": "badgeId",
          "type": "uint256"
        }
      ],
      "name": "BadgeMinted",
      "type": "event"
    },
    {
      "anonymous": false,
      "inputs": [
        {
          "indexed": true,
          "internalType": "address",
          "name": "_address",
          "type": "address"
        }
      ],
      "name": "MemberAddress",
      "type": "event"
    },
    {
      "anonymous": false,
      "inputs": [
        {
          "indexed": true,
          "internalType": "address",
          "name": "previousOwner",
          "type": "address"
        },
        {
          "indexed": true,
          "internalType": "address",
          "name": "newOwner",
          "type": "address"
        }
      ],
      "name": "OwnershipTransferred",
      "type": "event"
    },
    {
      "anonymous": false,
      "inputs": [
        {
          "indexed": true,
          "internalType": "address",
          "name": "_address",
          "type": "address"
        },
        {
          "indexed": false,
          "internalType": "string",
          "name": "title",
          "type": "string"
        },
        {
          "indexed": false,
          "internalType": "string",
          "name": "content",
          "type": "string"
        },
        {
          "indexed": false,
          "internalType": "uint256",
          "name": "timestamp",
          "type": "uint256"
        }
      ],
      "name": "PostCreated",
      "type": "event"
    },
    {
      "anonymous": false,
      "inputs": [
        {
          "indexed": true,
          "internalType": "address",
          "name": "_address",
          "type": "address"
        },
        {
          "indexed": false,
          "internalType": "uint256",
          "name": "amount",
          "type": "uint256"
        }
      ],
      "name": "RewardSent",
      "type": "event"
    },
    {
      "anonymous": false,
      "inputs": [
        {
          "indexed": true,
          "internalType": "address",
          "name": "user",
          "type": "address"
        }
      ],
      "name": "WalletConnected",
      "type": "event"
    },
    {
      "inputs": [],
      "name": "badgeNFT",
      "outputs": [
        {
          "internalType": "contract IbadgeNFT",
          "name": "",
          "type": "address"
        }
      ],
      "stateMutability": "view",
      "type": "function"
    },
    {
      "inputs": [
        {
          "internalType": "address",
          "name": "",
          "type": "address"
        }
      ],
      "name": "connected",
      "outputs": [
        {
          "internalType": "bool",
          "name": "",
          "type": "bool"
        }
      ],
      "stateMutability": "view",
      "type": "function"
    },
    {
      "inputs": [
        {
          "internalType": "uint256",
          "name": "",
          "type": "uint256"
        }
      ],
      "name": "connectedUsers",
      "outputs": [
        {
          "internalType": "address",
          "name": "",
          "type": "address"
        }
      ],
      "stateMutability": "view",
      "type": "function"
    },
    {
      "inputs": [
        {
          "internalType": "address",
          "name": "",
          "type": "address"
        }
      ],
      "name": "isMember",
      "outputs": [
        {
          "internalType": "bool",
          "name": "",
          "type": "bool"
        }
      ],
      "stateMutability": "view",
      "type": "function"
    },
    {
      "inputs": [],
      "name": "memberCount",
      "outputs": [
        {
          "internalType": "uint256",
          "name": "",
          "type": "uint256"
        }
      ],
      "stateMutability": "view",
      "type": "function"
    },
    {
      "inputs": [
        {
          "internalType": "uint256",
          "name": "",
          "type": "uint256"
        }
      ],
      "name": "members",
      "outputs": [
        {
          "internalType": "address",
          "name": "",
          "type": "address"
        }
      ],
      "stateMutability": "view",
      "type": "function"
    },
    {
      "inputs": [],
      "name": "owner",
      "outputs": [
        {
          "internalType": "address",
          "name": "",
          "type": "address"
        }
      ],
      "stateMutability": "view",
      "type": "function"
    },
    {
      "inputs": [
        {
          "internalType": "address",
          "name": "",
          "type": "address"
        }
      ],
      "name": "postingsCounts",
      "outputs": [
        {
          "internalType": "uint256",
          "name": "",
          "type": "uint256"
        }
      ],
      "stateMutability": "view",
      "type": "function"
    },
    {
      "inputs": [],
      "name": "renounceOwnership",
      "outputs": [],
      "stateMutability": "nonpayable",
      "type": "function"
    },
    {
      "inputs": [],
      "name": "stkToken",
      "outputs": [
        {
          "internalType": "contract IERC20",
          "name": "",
          "type": "address"
        }
      ],
      "stateMutability": "view",
      "type": "function"
    },
    {
      "inputs": [
        {
          "internalType": "address",
          "name": "",
          "type": "address"
        }
      ],
      "name": "totalRewards",
      "outputs": [
        {
          "internalType": "uint256",
          "name": "",
          "type": "uint256"
        }
      ],
      "stateMutability": "view",
      "type": "function"
    },
    {
      "inputs": [
        {
          "internalType": "address",
          "name": "newOwner",
          "type": "address"
        }
      ],
      "name": "transferOwnership",
      "outputs": [],
      "stateMutability": "nonpayable",
      "type": "function"
    },
    {
      "inputs": [
        {
          "internalType": "address",
          "name": "",
          "type": "address"
        },
        {
          "internalType": "uint256",
          "name": "",
          "type": "uint256"
        }
      ],
      "name": "userPostings",
      "outputs": [
        {
          "internalType": "string",
          "name": "title",
          "type": "string"
        },
        {
          "internalType": "string",
          "name": "content",
          "type": "string"
        },
        {
          "internalType": "uint256",
          "name": "timestamp",
          "type": "uint256"
        }
      ],
      "stateMutability": "view",
      "type": "function"
    },
    {
      "inputs": [],
      "name": "connectWallet",
      "outputs": [],
      "stateMutability": "nonpayable",
      "type": "function"
    },
    {
      "inputs": [
        {
          "internalType": "address",
          "name": "_address",
          "type": "address"
        }
      ],
      "name": "setMember",
      "outputs": [],
      "stateMutability": "nonpayable",
      "type": "function"
    },
    {
      "inputs": [],
      "name": "getAllMembers",
      "outputs": [
        {
          "internalType": "address[]",
          "name": "",
          "type": "address[]"
        }
      ],
      "stateMutability": "view",
      "type": "function"
    },
    {
      "inputs": [],
      "name": "getConnectedUsers",
      "outputs": [
        {
          "internalType": "address[]",
          "name": "",
          "type": "address[]"
        }
      ],
      "stateMutability": "view",
      "type": "function"
    },
    {
      "inputs": [
        {
          "internalType": "string",
          "name": "title",
          "type": "string"
        },
        {
          "internalType": "string",
          "name": "content",
          "type": "string"
        }
      ],
      "name": "writePostings",
      "outputs": [],
      "stateMutability": "payable",
      "type": "function"
    },
    {
      "inputs": [],
      "name": "getPostings",
      "outputs": [
        {
          "components": [
            {
              "internalType": "string",
              "name": "title",
              "type": "string"
            },
            {
              "internalType": "string",
              "name": "content",
              "type": "string"
            },
            {
              "internalType": "uint256",
              "name": "timestamp",
              "type": "uint256"
            }
          ],
          "internalType": "struct UserCRUD.Postings[]",
          "name": "",
          "type": "tuple[]"
        }
      ],
      "stateMutability": "view",
      "type": "function"
    },
    {
      "inputs": [],
      "name": "getMyStatus",
      "outputs": [
        {
          "internalType": "uint256",
          "name": "postingCount",
          "type": "uint256"
        },
        {
          "internalType": "uint256",
          "name": "rewardTotal",
          "type": "uint256"
        },
        {
          "internalType": "string",
          "name": "grade",
          "type": "string"
        },
        {
          "internalType": "uint256",
          "name": "badge0",
          "type": "uint256"
        },
        {
          "internalType": "uint256",
          "name": "badge1",
          "type": "uint256"
        },
        {
          "internalType": "uint256",
          "name": "badge2",
          "type": "uint256"
        }
      ],
      "stateMutability": "view",
      "type": "function"
    },
    {
      "inputs": [
        {
          "internalType": "address",
          "name": "user",
          "type": "address"
        }
      ],
      "name": "getGrade",
      "outputs": [
        {
          "internalType": "string",
          "name": "",
          "type": "string"
        }
      ],
      "stateMutability": "view",
      "type": "function"
    },
    {
      "inputs": [],
      "name": "getBalance",
      "outputs": [
        {
          "internalType": "uint256",
          "name": "",
          "type": "uint256"
        }
      ],
      "stateMutability": "view",
      "type": "function"
    },
    {
      "inputs": [
        {
          "internalType": "address payable",
          "name": "to",
          "type": "address"
        }
      ],
      "name": "withdrawETH",
      "outputs": [],
      "stateMutability": "nonpayable",
      "type": "function"
    }
  ],
  "bytecode": "0x608060405234801562000010575f80fd5b50604051620030a8380380620030a883398181016040528101906200003691906200026a565b335f73ffffffffffffffffffffffffffffffffffffffff168173ffffffffffffffffffffffffffffffffffffffff1603620000aa575f6040517f1e4fbdf7000000000000000000000000000000000000000000000000000000008152600401620000a19190620002c0565b60405180910390fd5b620000bb816200014460201b60201c565b508160015f6101000a81548173ffffffffffffffffffffffffffffffffffffffff021916908373ffffffffffffffffffffffffffffffffffffffff1602179055508060025f6101000a81548173ffffffffffffffffffffffffffffffffffffffff021916908373ffffffffffffffffffffffffffffffffffffffff1602179055505050620002db565b5f805f9054906101000a900473ffffffffffffffffffffffffffffffffffffffff169050815f806101000a81548173ffffffffffffffffffffffffffffffffffffffff021916908373ffffffffffffffffffffffffffffffffffffffff1602179055508173ffffffffffffffffffffffffffffffffffffffff168173ffffffffffffffffffffffffffffffffffffffff167f8be0079c531659141344cd1fd0a4f28419497f9722a3daafe3b4186f6b6457e060405160405180910390a35050565b5f80fd5b5f73ffffffffffffffffffffffffffffffffffffffff82169050919050565b5f620002348262000209565b9050919050565b620002468162000228565b811462000251575f80fd5b50565b5f8151905062000264816200023b565b92915050565b5f806040838503121562000283576200028262000205565b5b5f620002928582860162000254565b9250506020620002a58582860162000254565b9150509250929050565b620002ba8162000228565b82525050565b5f602082019050620002d55f830184620002af565b92915050565b612dbf80620002e95f395ff3fe60806040526004361061013f575f3560e01c8063690d8320116100b5578063ab7573dd1161006e578063ab7573dd14610466578063b12db7f2146104a2578063c28a8370146104cc578063eae36bb3146104f6578063f2fde38b14610520578063f76578a1146105485761013f565b8063690d832014610370578063715018a6146103985780637c0f6b35146103ae5780638da5cb5b146103d8578063923e51d514610402578063a230c5241461042a5761013f565b80632d66f063116101075780632d66f0631461024d578063313739a3146102635780634348e0e91461029f57806346a8239c146102c957806352e3b413146103055780635daf08ca146103345761013f565b806308847bdd146101435780630c46499a146101815780630e76754b146101bd57806311aee380146101f957806312065fe014610223575b5f80fd5b34801561014e575f80fd5b5061016960048036038101906101649190611d86565b610564565b60405161017893929190611e5d565b60405180910390f35b34801561018c575f80fd5b506101a760048036038101906101a29190611ea0565b6106b0565b6040516101b49190611eda565b60405180910390f35b3480156101c8575f80fd5b506101e360048036038101906101de9190611ef3565b6106eb565b6040516101f09190611f38565b60405180910390f35b348015610204575f80fd5b5061020d610708565b60405161021a9190611f51565b60405180910390f35b34801561022e575f80fd5b5061023761070e565b6040516102449190611f51565b60405180910390f35b348015610258575f80fd5b5061026161071d565b005b34801561026e575f80fd5b5061028960048036038101906102849190611ef3565b6108a1565b6040516102969190611f6a565b60405180910390f35b3480156102aa575f80fd5b506102b3610b63565b6040516102c09190611fe5565b60405180910390f35b3480156102d4575f80fd5b506102ef60048036038101906102ea9190611ef3565b610b88565b6040516102fc9190611f51565b60405180910390f35b348015610310575f80fd5b50610319610b9d565b60405161032b96959493929190611ffe565b60405180910390f35b34801561033f575f80fd5b5061035a60048036038101906103559190611ea0565b610e12565b6040516103679190611eda565b60405180910390f35b34801561037b575f80fd5b506103966004803603810190610391919061209f565b610e4d565b005b3480156103a3575f80fd5b506103ac610e9c565b005b3480156103b9575f80fd5b506103c2610eaf565b6040516103cf9190612181565b60405180910390f35b3480156103e3575f80fd5b506103ec610f3a565b6040516103f99190611eda565b60405180910390f35b34801561040d575f80fd5b5061042860048036038101906104239190611ef3565b610f61565b005b348015610435575f80fd5b50610450600480360381019061044b9190611ef3565b611107565b60405161045d9190611f38565b60405180910390f35b348015610471575f80fd5b5061048c60048036038101906104879190611ef3565b611124565b6040516104999190611f51565b60405180910390f35b3480156104ad575f80fd5b506104b6611139565b6040516104c39190612307565b60405180910390f35b3480156104d7575f80fd5b506104e06112f9565b6040516104ed9190612347565b60405180910390f35b348015610501575f80fd5b5061050a61131e565b6040516105179190612181565b60405180910390f35b34801561052b575f80fd5b5061054660048036038101906105419190611ef3565b6113a9565b005b610562600480360381019061055d919061248c565b61142d565b005b600a602052815f5260405f20818154811061057d575f80fd5b905f5260205f2090600302015f9150915050805f01805461059d9061252f565b80601f01602080910402602001604051908101604052809291908181526020018280546105c99061252f565b80156106145780601f106105eb57610100808354040283529160200191610614565b820191905f5260205f20905b8154815290600101906020018083116105f757829003601f168201915b5050505050908060010180546106299061252f565b80601f01602080910402602001604051908101604052809291908181526020018280546106559061252f565b80156106a05780601f10610677576101008083540402835291602001916106a0565b820191905f5260205f20905b81548152906001019060200180831161068357829003601f168201915b5050505050908060020154905083565b600781815481106106bf575f80fd5b905f5260205f20015f915054906101000a900473ffffffffffffffffffffffffffffffffffffffff1681565b6008602052805f5260405f205f915054906101000a900460ff1681565b60035481565b5f610717611b99565b47905090565b60085f3373ffffffffffffffffffffffffffffffffffffffff1673ffffffffffffffffffffffffffffffffffffffff1681526020019081526020015f205f9054906101000a900460ff16156107a7576040517f08c379a000000000000000000000000000000000000000000000000000000000815260040161079e906125a9565b60405180910390fd5b600160085f3373ffffffffffffffffffffffffffffffffffffffff1673ffffffffffffffffffffffffffffffffffffffff1681526020019081526020015f205f6101000a81548160ff021916908315150217905550600733908060018154018082558091505060019003905f5260205f20015f9091909190916101000a81548173ffffffffffffffffffffffffffffffffffffffff021916908373ffffffffffffffffffffffffffffffffffffffff1602179055503373ffffffffffffffffffffffffffffffffffffffff167f1c072e5ba1f77c8500be2f4d3f2b949ba75c7b388393230124ca29b18b5b554f60405160405180910390a2565b606060045f8373ffffffffffffffffffffffffffffffffffffffff1673ffffffffffffffffffffffffffffffffffffffff1681526020019081526020015f205f9054906101000a900460ff1661092e576040518060400160405280600781526020017f47656e6572616c000000000000000000000000000000000000000000000000008152509050610b5e565b5f60055f8473ffffffffffffffffffffffffffffffffffffffff1673ffffffffffffffffffffffffffffffffffffffff1681526020019081526020015f205490505f60015f9054906101000a900473ffffffffffffffffffffffffffffffffffffffff1673ffffffffffffffffffffffffffffffffffffffff166370a08231856040518263ffffffff1660e01b81526004016109ca9190611eda565b602060405180830381865afa1580156109e5573d5f803e3d5ffd5b505050506040513d601f19601f82011682018060405250810190610a0991906125db565b905060148210158015610a25575068056bc75e2d631000008110155b15610a69576040518060400160405280600981526020017f455843454c4c454e54000000000000000000000000000000000000000000000081525092505050610b5e565b600a8210158015610a825750678ac7230489e800008110155b15610ac6576040518060400160405280600481526020017f424553540000000000000000000000000000000000000000000000000000000081525092505050610b5e565b60038210158015610adf57506729a2241af62c00008110155b15610b23576040518060400160405280600481526020017f474f4f440000000000000000000000000000000000000000000000000000000081525092505050610b5e565b6040518060400160405280600681526020017f4d454d4245520000000000000000000000000000000000000000000000000000815250925050505b919050565b60025f9054906101000a900473ffffffffffffffffffffffffffffffffffffffff1681565b6005602052805f5260405f205f915090505481565b5f8060605f805f8033905060055f8273ffffffffffffffffffffffffffffffffffffffff1673ffffffffffffffffffffffffffffffffffffffff1681526020019081526020015f2054965060065f8273ffffffffffffffffffffffffffffffffffffffff1673ffffffffffffffffffffffffffffffffffffffff1681526020019081526020015f20549550610c31816108a1565b945060025f9054906101000a900473ffffffffffffffffffffffffffffffffffffffff1673ffffffffffffffffffffffffffffffffffffffff1662fdd58e825f6040518363ffffffff1660e01b8152600401610c8e92919061263f565b602060405180830381865afa158015610ca9573d5f803e3d5ffd5b505050506040513d601f19601f82011682018060405250810190610ccd91906125db565b935060025f9054906101000a900473ffffffffffffffffffffffffffffffffffffffff1673ffffffffffffffffffffffffffffffffffffffff1662fdd58e8260016040518363ffffffff1660e01b8152600401610d2b92919061269f565b602060405180830381865afa158015610d46573d5f803e3d5ffd5b505050506040513d601f19601f82011682018060405250810190610d6a91906125db565b925060025f9054906101000a900473ffffffffffffffffffffffffffffffffffffffff1673ffffffffffffffffffffffffffffffffffffffff1662fdd58e8260026040518363ffffffff1660e01b8152600401610dc89291906126ff565b602060405180830381865afa158015610de3573d5f803e3d5ffd5b505050506040513d601f19601f82011682018060405250810190610e0791906125db565b915050909192939495565b60098181548110610e21575f80fd5b905f5260205f20015f915054906101000a900473ffffffffffffffffffffffffffffffffffffffff1681565b610e55611b99565b8073ffffffffffffffffffffffffffffffffffffffff166108fc4790811502906040515f60405180830381858888f19350505050158015610e98573d5f803e3d5ffd5b5050565b610ea4611b99565b610ead5f611c20565b565b60606009805480602002602001604051908101604052809291908181526020018280548015610f3057602002820191905f5260205f20905b815f9054906101000a900473ffffffffffffffffffffffffffffffffffffffff1673ffffffffffffffffffffffffffffffffffffffff1681526020019060010190808311610ee7575b5050505050905090565b5f805f9054906101000a900473ffffffffffffffffffffffffffffffffffffffff16905090565b610f69611b99565b60045f8273ffffffffffffffffffffffffffffffffffffffff1673ffffffffffffffffffffffffffffffffffffffff1681526020019081526020015f205f9054906101000a900460ff1615610ff3576040517f08c379a0000000000000000000000000000000000000000000000000000000008152600401610fea90612770565b60405180910390fd5b600160045f8373ffffffffffffffffffffffffffffffffffffffff1673ffffffffffffffffffffffffffffffffffffffff1681526020019081526020015f205f6101000a81548160ff021916908315150217905550600160035f82825461105a91906127bb565b92505081905550600981908060018154018082558091505060019003905f5260205f20015f9091909190916101000a81548173ffffffffffffffffffffffffffffffffffffffff021916908373ffffffffffffffffffffffffffffffffffffffff1602179055508073ffffffffffffffffffffffffffffffffffffffff167f5964b5be6444de538b15906c757b04ec19825196f380864691080633fcad9f2f60405160405180910390a250565b6004602052805f5260405f205f915054906101000a900460ff1681565b6006602052805f5260405f205f915090505481565b6060600a5f3373ffffffffffffffffffffffffffffffffffffffff1673ffffffffffffffffffffffffffffffffffffffff1681526020019081526020015f20805480602002602001604051908101604052809291908181526020015f905b828210156112f0578382905f5260205f2090600302016040518060600160405290815f820180546111c79061252f565b80601f01602080910402602001604051908101604052809291908181526020018280546111f39061252f565b801561123e5780601f106112155761010080835404028352916020019161123e565b820191905f5260205f20905b81548152906001019060200180831161122157829003601f168201915b505050505081526020016001820180546112579061252f565b80601f01602080910402602001604051908101604052809291908181526020018280546112839061252f565b80156112ce5780601f106112a5576101008083540402835291602001916112ce565b820191905f5260205f20905b8154815290600101906020018083116112b157829003601f168201915b5050505050815260200160028201548152505081526020019060010190611197565b50505050905090565b60015f9054906101000a900473ffffffffffffffffffffffffffffffffffffffff1681565b6060600780548060200260200160405190810160405280929190818152602001828054801561139f57602002820191905f5260205f20905b815f9054906101000a900473ffffffffffffffffffffffffffffffffffffffff1673ffffffffffffffffffffffffffffffffffffffff1681526020019060010190808311611356575b5050505050905090565b6113b1611b99565b5f73ffffffffffffffffffffffffffffffffffffffff168173ffffffffffffffffffffffffffffffffffffffff1603611421575f6040517f1e4fbdf70000000000000000000000000000000000000000000000000000000081526004016114189190611eda565b60405180910390fd5b61142a81611c20565b50565b6706f05b59d3b200003414611477576040517f08c379a000000000000000000000000000000000000000000000000000000000815260040161146e90612838565b60405180910390fd5b600a5f3373ffffffffffffffffffffffffffffffffffffffff1673ffffffffffffffffffffffffffffffffffffffff1681526020019081526020015f20604051806060016040528084815260200183815260200142815250908060018154018082558091505060019003905f5260205f2090600302015f909190919091505f820151815f01908161150891906129ea565b50602082015181600101908161151e91906129ea565b506040820151816002015550503373ffffffffffffffffffffffffffffffffffffffff167f4dc899ab633bbd3c97004820698910906a6748451e00b59a3e011358dc2f9fb583834260405161157593929190611e5d565b60405180910390a2600160055f3373ffffffffffffffffffffffffffffffffffffffff1673ffffffffffffffffffffffffffffffffffffffff1681526020019081526020015f205f8282546115ca91906127bb565b925050819055505f670de0b6b3a7640000905060045f3373ffffffffffffffffffffffffffffffffffffffff1673ffffffffffffffffffffffffffffffffffffffff1681526020019081526020015f205f9054906101000a900460ff1615611a56575f611636336108a1565b90505f60055f3373ffffffffffffffffffffffffffffffffffffffff1673ffffffffffffffffffffffffffffffffffffffff1681526020019081526020015f2054905060405160200161168890612b0d565b60405160208183030381529060405280519060200120826040516020016116af9190612b51565b604051602081830303815290604052805190602001201480156116d25750601481115b156117c4576801158e460913d00000925060025f9054906101000a900473ffffffffffffffffffffffffffffffffffffffff1673ffffffffffffffffffffffffffffffffffffffff1663156e29f633600260016040518463ffffffff1660e01b815260040161174393929190612b67565b5f604051808303815f87803b15801561175a575f80fd5b505af115801561176c573d5f803e3d5ffd5b505050503373ffffffffffffffffffffffffffffffffffffffff167fc5e5b314108c1f776c2302351b8278910ddb812b122b2717b1bc973146145e9a60026040516117b79190612b9c565b60405180910390a2611a53565b6040516020016117d390612bff565b60405160208183030381529060405280519060200120826040516020016117fa9190612b51565b6040516020818303038152906040528051906020012014801561181d5750600a81115b1561190d57678ac7230489e80000925060025f9054906101000a900473ffffffffffffffffffffffffffffffffffffffff1673ffffffffffffffffffffffffffffffffffffffff1663156e29f6336001806040518463ffffffff1660e01b815260040161188c93929190612c13565b5f604051808303815f87803b1580156118a3575f80fd5b505af11580156118b5573d5f803e3d5ffd5b505050503373ffffffffffffffffffffffffffffffffffffffff167fc5e5b314108c1f776c2302351b8278910ddb812b122b2717b1bc973146145e9a60016040516119009190612c48565b60405180910390a2611a52565b60405160200161191c90612cab565b60405160208183030381529060405280519060200120826040516020016119439190612b51565b604051602081830303815290604052805190602001201480156119665750600381115b15611a5157671bc16d674ec80000925060025f9054906101000a900473ffffffffffffffffffffffffffffffffffffffff1673ffffffffffffffffffffffffffffffffffffffff1663156e29f6335f60016040518463ffffffff1660e01b81526004016119d593929190612cbf565b5f604051808303815f87803b1580156119ec575f80fd5b505af11580156119fe573d5f803e3d5ffd5b505050503373ffffffffffffffffffffffffffffffffffffffff167fc5e5b314108c1f776c2302351b8278910ddb812b122b2717b1bc973146145e9a5f604051611a489190612cf4565b60405180910390a25b5b5b50505b60015f9054906101000a900473ffffffffffffffffffffffffffffffffffffffff1673ffffffffffffffffffffffffffffffffffffffff1663a9059cbb33836040518363ffffffff1660e01b8152600401611ab2929190612d0d565b6020604051808303815f875af1158015611ace573d5f803e3d5ffd5b505050506040513d601f19601f82011682018060405250810190611af29190612d5e565b508060065f3373ffffffffffffffffffffffffffffffffffffffff1673ffffffffffffffffffffffffffffffffffffffff1681526020019081526020015f205f828254611b3f91906127bb565b925050819055503373ffffffffffffffffffffffffffffffffffffffff167f6177f4110771217c72937d51f3a73915f2c714a6b98507e17eea7a186136a24a82604051611b8c9190611f51565b60405180910390a2505050565b611ba1611ce1565b73ffffffffffffffffffffffffffffffffffffffff16611bbf610f3a565b73ffffffffffffffffffffffffffffffffffffffff1614611c1e57611be2611ce1565b6040517f118cdaa7000000000000000000000000000000000000000000000000000000008152600401611c159190611eda565b60405180910390fd5b565b5f805f9054906101000a900473ffffffffffffffffffffffffffffffffffffffff169050815f806101000a81548173ffffffffffffffffffffffffffffffffffffffff021916908373ffffffffffffffffffffffffffffffffffffffff1602179055508173ffffffffffffffffffffffffffffffffffffffff168173ffffffffffffffffffffffffffffffffffffffff167f8be0079c531659141344cd1fd0a4f28419497f9722a3daafe3b4186f6b6457e060405160405180910390a35050565b5f33905090565b5f604051905090565b5f80fd5b5f80fd5b5f73ffffffffffffffffffffffffffffffffffffffff82169050919050565b5f611d2282611cf9565b9050919050565b611d3281611d18565b8114611d3c575f80fd5b50565b5f81359050611d4d81611d29565b92915050565b5f819050919050565b611d6581611d53565b8114611d6f575f80fd5b50565b5f81359050611d8081611d5c565b92915050565b5f8060408385031215611d9c57611d9b611cf1565b5b5f611da985828601611d3f565b9250506020611dba85828601611d72565b9150509250929050565b5f81519050919050565b5f82825260208201905092915050565b5f5b83811015611dfb578082015181840152602081019050611de0565b5f8484015250505050565b5f601f19601f8301169050919050565b5f611e2082611dc4565b611e2a8185611dce565b9350611e3a818560208601611dde565b611e4381611e06565b840191505092915050565b611e5781611d53565b82525050565b5f6060820190508181035f830152611e758186611e16565b90508181036020830152611e898185611e16565b9050611e986040830184611e4e565b949350505050565b5f60208284031215611eb557611eb4611cf1565b5b5f611ec284828501611d72565b91505092915050565b611ed481611d18565b82525050565b5f602082019050611eed5f830184611ecb565b92915050565b5f60208284031215611f0857611f07611cf1565b5b5f611f1584828501611d3f565b91505092915050565b5f8115159050919050565b611f3281611f1e565b82525050565b5f602082019050611f4b5f830184611f29565b92915050565b5f602082019050611f645f830184611e4e565b92915050565b5f6020820190508181035f830152611f828184611e16565b905092915050565b5f819050919050565b5f611fad611fa8611fa384611cf9565b611f8a565b611cf9565b9050919050565b5f611fbe82611f93565b9050919050565b5f611fcf82611fb4565b9050919050565b611fdf81611fc5565b82525050565b5f602082019050611ff85f830184611fd6565b92915050565b5f60c0820190506120115f830189611e4e565b61201e6020830188611e4e565b81810360408301526120308187611e16565b905061203f6060830186611e4e565b61204c6080830185611e4e565b61205960a0830184611e4e565b979650505050505050565b5f61206e82611cf9565b9050919050565b61207e81612064565b8114612088575f80fd5b50565b5f8135905061209981612075565b92915050565b5f602082840312156120b4576120b3611cf1565b5b5f6120c18482850161208b565b91505092915050565b5f81519050919050565b5f82825260208201905092915050565b5f819050602082019050919050565b6120fc81611d18565b82525050565b5f61210d83836120f3565b60208301905092915050565b5f602082019050919050565b5f61212f826120ca565b61213981856120d4565b9350612144836120e4565b805f5b8381101561217457815161215b8882612102565b975061216683612119565b925050600181019050612147565b5085935050505092915050565b5f6020820190508181035f8301526121998184612125565b905092915050565b5f81519050919050565b5f82825260208201905092915050565b5f819050602082019050919050565b5f82825260208201905092915050565b5f6121e482611dc4565b6121ee81856121ca565b93506121fe818560208601611dde565b61220781611e06565b840191505092915050565b61221b81611d53565b82525050565b5f606083015f8301518482035f86015261223b82826121da565b9150506020830151848203602086015261225582826121da565b915050604083015161226a6040860182612212565b508091505092915050565b5f6122808383612221565b905092915050565b5f602082019050919050565b5f61229e826121a1565b6122a881856121ab565b9350836020820285016122ba856121bb565b805f5b858110156122f557848403895281516122d68582612275565b94506122e183612288565b925060208a019950506001810190506122bd565b50829750879550505050505092915050565b5f6020820190508181035f83015261231f8184612294565b905092915050565b5f61233182611fb4565b9050919050565b61234181612327565b82525050565b5f60208201905061235a5f830184612338565b92915050565b5f80fd5b5f80fd5b7f4e487b71000000000000000000000000000000000000000000000000000000005f52604160045260245ffd5b61239e82611e06565b810181811067ffffffffffffffff821117156123bd576123bc612368565b5b80604052505050565b5f6123cf611ce8565b90506123db8282612395565b919050565b5f67ffffffffffffffff8211156123fa576123f9612368565b5b61240382611e06565b9050602081019050919050565b828183375f83830152505050565b5f61243061242b846123e0565b6123c6565b90508281526020810184848401111561244c5761244b612364565b5b612457848285612410565b509392505050565b5f82601f83011261247357612472612360565b5b813561248384826020860161241e565b91505092915050565b5f80604083850312156124a2576124a1611cf1565b5b5f83013567ffffffffffffffff8111156124bf576124be611cf5565b5b6124cb8582860161245f565b925050602083013567ffffffffffffffff8111156124ec576124eb611cf5565b5b6124f88582860161245f565b9150509250929050565b7f4e487b71000000000000000000000000000000000000000000000000000000005f52602260045260245ffd5b5f600282049050600182168061254657607f821691505b60208210810361255957612558612502565b5b50919050565b7f57616c6c657420616c726561647920636f6e6e656374656400000000000000005f82015250565b5f612593601883611dce565b915061259e8261255f565b602082019050919050565b5f6020820190508181035f8301526125c081612587565b9050919050565b5f815190506125d581611d5c565b92915050565b5f602082840312156125f0576125ef611cf1565b5b5f6125fd848285016125c7565b91505092915050565b5f819050919050565b5f61262961262461261f84612606565b611f8a565b611d53565b9050919050565b6126398161260f565b82525050565b5f6040820190506126525f830185611ecb565b61265f6020830184612630565b9392505050565b5f819050919050565b5f61268961268461267f84612666565b611f8a565b611d53565b9050919050565b6126998161266f565b82525050565b5f6040820190506126b25f830185611ecb565b6126bf6020830184612690565b9392505050565b5f819050919050565b5f6126e96126e46126df846126c6565b611f8a565b611d53565b9050919050565b6126f9816126cf565b82525050565b5f6040820190506127125f830185611ecb565b61271f60208301846126f0565b9392505050565b7f616c72656164792061206d656d626572000000000000000000000000000000005f82015250565b5f61275a601083611dce565b915061276582612726565b602082019050919050565b5f6020820190508181035f8301526127878161274e565b9050919050565b7f4e487b71000000000000000000000000000000000000000000000000000000005f52601160045260245ffd5b5f6127c582611d53565b91506127d083611d53565b92508282019050808211156127e8576127e761278e565b5b92915050565b7f6d7573742070617920302e3520457468657200000000000000000000000000005f82015250565b5f612822601283611dce565b915061282d826127ee565b602082019050919050565b5f6020820190508181035f83015261284f81612816565b9050919050565b5f819050815f5260205f209050919050565b5f6020601f8301049050919050565b5f82821b905092915050565b5f600883026128b27fffffffffffffffffffffffffffffffffffffffffffffffffffffffffffffffff82612877565b6128bc8683612877565b95508019841693508086168417925050509392505050565b5f6128ee6128e96128e484611d53565b611f8a565b611d53565b9050919050565b5f819050919050565b612907836128d4565b61291b612913826128f5565b848454612883565b825550505050565b5f90565b61292f612923565b61293a8184846128fe565b505050565b5b8181101561295d576129525f82612927565b600181019050612940565b5050565b601f8211156129a25761297381612856565b61297c84612868565b8101602085101561298b578190505b61299f61299785612868565b83018261293f565b50505b505050565b5f82821c905092915050565b5f6129c25f19846008026129a7565b1980831691505092915050565b5f6129da83836129b3565b9150826002028217905092915050565b6129f382611dc4565b67ffffffffffffffff811115612a0c57612a0b612368565b5b612a16825461252f565b612a21828285612961565b5f60209050601f831160018114612a52575f8415612a40578287015190505b612a4a85826129cf565b865550612ab1565b601f198416612a6086612856565b5f5b82811015612a8757848901518255600182019150602085019450602081019050612a62565b86831015612aa45784890151612aa0601f8916826129b3565b8355505b6001600288020188555050505b505050505050565b5f81905092915050565b7f455843454c4c454e5400000000000000000000000000000000000000000000005f82015250565b5f612af7600983612ab9565b9150612b0282612ac3565b600982019050919050565b5f612b1782612aeb565b9150819050919050565b5f612b2b82611dc4565b612b358185612ab9565b9350612b45818560208601611dde565b80840191505092915050565b5f612b5c8284612b21565b915081905092915050565b5f606082019050612b7a5f830186611ecb565b612b8760208301856126f0565b612b946040830184612690565b949350505050565b5f602082019050612baf5f8301846126f0565b92915050565b7f42455354000000000000000000000000000000000000000000000000000000005f82015250565b5f612be9600483612ab9565b9150612bf482612bb5565b600482019050919050565b5f612c0982612bdd565b9150819050919050565b5f606082019050612c265f830186611ecb565b612c336020830185612690565b612c406040830184612690565b949350505050565b5f602082019050612c5b5f830184612690565b92915050565b7f474f4f44000000000000000000000000000000000000000000000000000000005f82015250565b5f612c95600483612ab9565b9150612ca082612c61565b600482019050919050565b5f612cb582612c89565b9150819050919050565b5f606082019050612cd25f830186611ecb565b612cdf6020830185612630565b612cec6040830184612690565b949350505050565b5f602082019050612d075f830184612630565b92915050565b5f604082019050612d205f830185611ecb565b612d2d6020830184611e4e565b9392505050565b612d3d81611f1e565b8114612d47575f80fd5b50565b5f81519050612d5881612d34565b92915050565b5f60208284031215612d7357612d72611cf1565b5b5f612d8084828501612d4a565b9150509291505056fea2646970667358221220c97ba457033f190511761b2c09bbc2fa5434da723c74be7819ca6fb6440e434264736f6c63430008140033",
  "immutableReferences": {},
  "source": "// SPDX-License-Identifier: MIT\npragma solidity ^0.8.20;\n\nimport \"@openzeppelin/contracts/token/ERC20/IERC20.sol\";\nimport \"@openzeppelin/contracts/access/Ownable.sol\";\n\ninterface IbadgeNFT {\n    function mint(address to, uint256 id, uint256 amount) external;\n    function balanceOf(\n        address account,\n        uint256 id\n    ) external view returns (uint256);\n}\n\ncontract UserCRUD is Ownable {\n    IERC20 public stkToken;\n    IbadgeNFT public badgeNFT;\n\n    uint256 public memberCount;\n\n    mapping(address => bool) public isMember;\n    mapping(address => uint256) public postingsCounts;\n    mapping(address => uint256) public totalRewards;\n\n    address[] public connectedUsers;\n    mapping(address => bool) public connected;\n    address[] public members;\n\n    struct Postings {\n        string title;\n        string content;\n        uint256 timestamp;\n    }\n\n    mapping(address => Postings[]) public userPostings;\n\n    event PostCreated(\n        address indexed _address,\n        string title,\n        string content,\n        uint256 timestamp\n    );\n    event MemberAddress(address indexed _address);\n    event RewardSent(address indexed _address, uint256 amount);\n    event BadgeMinted(address indexed _address, uint256 badgeId);\n    event WalletConnected(address indexed user);\n\n    constructor(address _stkToken, address _badgeNFT) Ownable(msg.sender) {\n        stkToken = IERC20(_stkToken);\n        badgeNFT = IbadgeNFT(_badgeNFT);\n    }\n\n    function connectWallet() external {\n        require(!connected[msg.sender], \"Wallet already connected\");\n        connected[msg.sender] = true;\n        connectedUsers.push(msg.sender);\n        emit WalletConnected(msg.sender);\n    }\n\n    function setMember(address _address) public onlyOwner {\n        require(!isMember[_address], \"already a member\");\n        isMember[_address] = true;\n        memberCount += 1;\n        members.push(_address);\n        emit MemberAddress(_address);\n    }\n\n    function getAllMembers() external view returns (address[] memory) {\n        return members;\n    }\n\n    function getConnectedUsers() external view returns (address[] memory) {\n        return connectedUsers;\n    }\n\n    function writePostings(\n        string memory title,\n        string memory content\n    ) external payable {\n        require(msg.value == 0.5 ether, \"must pay 0.5 Ether\");\n\n        userPostings[msg.sender].push(\n            Postings(title, content, block.timestamp)\n        );\n        emit PostCreated(msg.sender, title, content, block.timestamp);\n\n        postingsCounts[msg.sender] += 1;\n\n        uint256 rewardAmount = 1 ether; //  \n\n        if (isMember[msg.sender]) {\n            string memory currentGrade = getGrade(msg.sender);\n            uint256 pc = postingsCounts[msg.sender];\n\n            if (\n                keccak256(abi.encodePacked(currentGrade)) ==\n                keccak256(abi.encodePacked(\"EXCELLENT\")) &&\n                pc > 20\n            ) {\n                // EXCELLENT\n                rewardAmount = 20 ether;\n                badgeNFT.mint(msg.sender, 2, 1);\n                emit BadgeMinted(msg.sender, 2);\n            } else if (\n                keccak256(abi.encodePacked(currentGrade)) ==\n                keccak256(abi.encodePacked(\"BEST\")) &&\n                pc > 10\n            ) {\n                // BEST\n                rewardAmount = 10 ether;\n                badgeNFT.mint(msg.sender, 1, 1);\n                emit BadgeMinted(msg.sender, 1);\n            } else if (\n                keccak256(abi.encodePacked(currentGrade)) ==\n                keccak256(abi.encodePacked(\"GOOD\")) &&\n                pc > 3\n            ) {\n                // GOOD\n\n                rewardAmount = 2 ether;\n                badgeNFT.mint(msg.sender, 0, 1);\n                emit BadgeMinted(msg.sender, 0);\n            }\n        }\n\n        stkToken.transfer(msg.sender, rewardAmount);\n        totalRewards[msg.sender] += rewardAmount;\n        emit RewardSent(msg.sender, rewardAmount);\n    }\n\n    function getPostings() external view returns (Postings[] memory) {\n        return userPostings[msg.sender];\n    }\n\n    function getMyStatus()\n        external\n        view\n        returns (\n            uint256 postingCount,\n            uint256 rewardTotal,\n            string memory grade,\n            uint256 badge0,\n            uint256 badge1,\n            uint256 badge2\n        )\n    {\n        address user = msg.sender;\n        postingCount = postingsCounts[user];\n        rewardTotal = totalRewards[user];\n        grade = getGrade(user);\n        badge0 = badgeNFT.balanceOf(user, 0);\n        badge1 = badgeNFT.balanceOf(user, 1);\n        badge2 = badgeNFT.balanceOf(user, 2);\n    }\n\n    function getGrade(address user) public view returns (string memory) {\n        if (!isMember[user]) return \"General\";\n\n        uint256 pc = postingsCounts[user];\n        uint256 reward = stkToken.balanceOf(user);\n\n        if (pc >= 20 && reward >= 100 ether) return \"EXCELLENT\";\n        else if (pc >= 10 && reward >= 10 ether) return \"BEST\";\n        else if (pc >= 3 && reward >= 3 ether) return \"GOOD\";\n        else return \"MEMBER\";\n    }\n\n    function getBalance() external view onlyOwner returns (uint256) {\n        return address(this).balance;\n    }\n\n    function withdrawETH(address payable to) external onlyOwner {\n        to.transfer(address(this).balance);\n    }\n}\n",
  "sourcePath": "/Users/eunsbook/Documents/bolckchain/blockchain-toy-project/truffle/contracts/UserCRUD.sol",
  "compiler": {
    "name": "solc",
    "version": "0.8.20+commit.a1b79de6.Emscripten.clang"
  },
  "schemaVersion": "3.4.16",
  "updatedAt": "2025-05-28T12:23:21.269Z",
  "devdoc": {
    "errors": {
      "OwnableInvalidOwner(address)": [
        {
          "details": "The owner is not a valid owner account. (eg. `address(0)`)"
        }
      ],
      "OwnableUnauthorizedAccount(address)": [
        {
          "details": "The caller account is not authorized to perform an operation."
        }
      ]
    },
    "kind": "dev",
    "methods": {
      "owner()": {
        "details": "Returns the address of the current owner."
      },
      "renounceOwnership()": {
        "details": "Leaves the contract without owner. It will not be possible to call `onlyOwner` functions. Can only be called by the current owner. NOTE: Renouncing ownership will leave the contract without an owner, thereby disabling any functionality that is only available to the owner."
      },
      "transferOwnership(address)": {
        "details": "Transfers ownership of the contract to a new account (`newOwner`). Can only be called by the current owner."
      }
    },
    "version": 1
  },
  "userdoc": {
    "kind": "user",
    "methods": {},
    "version": 1
  }
}